:100000000C9462000C9409030C9436030C948A003F
:100010000C948A000C948A000C948A000C948A0038
:100020000C948A000C948A000C948A000C948A0028
:100030000C948A000C948A000C948A000C948A0018
:100040000C9463030C948A000C9488040C948A002A
:100050000C948A000C948A000C948A000C948A00F8
:100060000C948A000C948A000000000024002700F1
:100070002A0000000000250028002B0000000000DE
:1000800023002600290004040404040404040202DA
:100090000202020203030303030301020408102007
:1000A0004080010204081020010204081020000012
:1000B0000007000201000003040600000000000029
:1000C0000000D10511241FBECFEFD4E0DEBFCDBFAD
:1000D00011E0A0E0B1E0ECE9FFE002C005900D9274
:1000E000A634B107D9F713E0A6E4B1E001C01D9230
:1000F000A834B107E1F710E0C4ECD0E004C02297C7
:10010000FE010E94C807C23CD107C9F70E94DF0266
:100110000C94CC070C94000080914601909147010B
:100120000297F8F4E091A202F091A302EE0FFF1FF4
:10013000E45BFE4F808191810090A00202C0959502
:1001400087950A94E2F780FF07C081E090E09093E2
:10015000470180934601089510924701109246018D
:1001600008958091480190914901181619062CF4C0
:1001700001979093490180934801809148019091A3
:100180004901892B21F410924701109246010895EC
:100190000F931F93CF93DF930091A2021091A302BC
:1001A0009C01C0E0D0E005C020E030E000E010E0BD
:1001B0002196F801EE0FFF1FE45BFE4F80819181D5
:1001C000022E02C0959587950A94E2F780FF15C02C
:1001D0002F5F3F4FC90166E070E00E946207892BE4
:1001E00039F70F5F1F4FC80168EA70E00E9462078D
:1001F000892BD1F220E030E0DBCFCE01DF91CF912F
:100200001F910F9108950F931F93CF93DF936AE08F
:1002100070E00E946207EB0170934901609348010E
:1002200080919E0290919F02181619060CF4219657
:1002300000E010E010C08091A0029091A102800F18
:10024000911F0E94C800181619061CF4C80FD91F68
:1002500005C00F5F1F4F0C171D076CF3D0934B01A8
:10026000C0934A01DF91CF911F910F9108950F9391
:100270001F93CF93DF938C01EB0168E170E00E9444
:1002800062076330710529F1643071054CF4613007
:100290007105A9F062307105BCF4672B59F02EC0CE
:1002A0006530710501F165307105C4F06630710586
:1002B00029F51EC085E393E060E071E01DC085E391
:1002C00093E065E071E018C085E393E06AE071E0D7
:1002D00013C085E393E06FE071E00EC085E393E027
:1002E00064E171E009C085E393E069E171E004C075
:1002F00085E393E06EE171E00E944206CE0166E084
:1003000070E00E946207892B11F0C80104C0C80187
:100310000196C0E0D0E068E170E00E946207BC0195
:1003200085E393E00E942B0785E393E063E271E0AD
:100330000E944206209739F485E393E065E271E07C
:100340000E9461060EC0BE0133E0660F771F3A952A
:10035000E1F7CC0FDD1F6C0F7D1F85E393E00E945A
:100360003307DF91CF911F910F91089510929D0255
:1003700010929C0210929F0210929E026091A00225
:100380007091A1026F5F7F4F7093A1026093A002F2
:100390008091A2029091A3020E9437018091A00255
:1003A0009091A10266E070E00E946207892BA1F49F
:1003B0001092A1021092A0028091A2029091A30239
:1003C00001969093A3028093A202883A910521F4AA
:1003D0001092A3021092A20280914A0190914B01C7
:1003E000181619062CF4019790934B0180934A013B
:1003F00080914A0190914B01892B11F40E948C004D
:100400000895DF93CF93CDB7DEB728970FB6F89452
:10041000DEBF0FBECDBFDE011196E3E3F1E088E061
:1004200001900D928150E1F7898160E00E943B04C8
:100430008B8160E00E943B048D8160E00E943B0460
:100440008F8160E00E943B0460E0809146019091C2
:100450004701892B09F061E088E00E943B0480910C
:100460004601909147018230910561F083309105FA
:100470001CF4019789F40CC08330910529F004978E
:1004800059F404C084E005C085E003C086E001C0E3
:1004900087E061E00E943B0428960FB6F894DEBF27
:1004A0000FBECDBFCF91DF91089585E393E068E261
:1004B00071E00E946106809146019091470182306F
:1004C000910561F083309105A1F0892BC9F48AE090
:1004D00090E00E94030182E090E006C084E190E099
:1004E0000E94030183E090E09093470180934601CE
:1004F00015C08EE190E00E94030184E090E0F4CF0B
:100500008091A0029091A1020E94C80090934B019B
:1005100080934A0110924701109246010E94010205
:10052000089568EE73E080E090E00E94B7030895BC
:100530000E94B6010E9401020E949102089583E088
:1005400060E00E941B0483E061E00E943B0481E0C4
:1005500065E572E042E050E00E94E60284E061E07E
:100560000E941B0485E061E00E941B0486E061E0BC
:100570000E941B0487E061E00E941B0488E061E0A8
:100580000E941B0485E393E040E855E260E070E0E0
:100590000E94C504ECE4F1E01192119282E0EC3982
:1005A000F807D1F78FE390E090934F0180934E01CD
:1005B00080E390E0909351018093500108950E9450
:1005C000E1030E949F020E949802FDCF823000F555
:1005D000E82FF0E0EE0FFF1FEC55FD4F71836083B5
:1005E000882319F08130A1F408C0809169008C7FC4
:1005F000842B80936900E89A089580916900440FE4
:10060000551F440F551F837F842B80936900E99AFF
:1006100008951F920F920FB60F9211242F933F93BC
:100620004F935F936F937F938F939F93AF93BF93FA
:10063000EF93FF938091A4029091A502892B29F05A
:10064000E091A402F091A5020995FF91EF91BF916D
:10065000AF919F918F917F916F915F914F913F915A
:100660002F910F900FBE0F901F9018951F920F9211
:100670000FB60F9211242F933F934F935F936F9375
:100680007F938F939F93AF93BF93EF93FF9380914B
:10069000A6029091A702892B29F0E091A602F09181
:1006A000A7020995FF91EF91BF91AF919F918F9113
:1006B0007F916F915F914F913F912F910F900FBE5E
:1006C0000F901F9018951F920F920FB60F92112442
:1006D0002F933F934F935F936F937F938F939F934A
:1006E000AF93BF932091AC023091AD024091AE0226
:1006F0005091AF027091B002DA01C9010296A11DBA
:10070000B11D672F6A5F6D3730F06D57DA01C9018F
:100710000396A11DB11D6093B0028093AC0290932B
:10072000AD02A093AE02B093AF028091A802909167
:10073000A902A091AA02B091AB020196A11DB11D20
:100740008093A8029093A902A093AA02B093AB024F
:10075000BF91AF919F918F917F916F915F914F91D9
:100760003F912F910F900FBE0F901F901895EF9211
:10077000FF920F931F937B018C018FB7F8944091E8
:10078000AC025091AD026091AE027091AF028FBF8A
:100790002FB7F8948091AC029091AD02A091AE0277
:1007A000B091AF022FBF841B950BA60BB70BE816B9
:1007B000F9060A071B0760F71F910F91FF90EF9052
:1007C0000895789484B5826084BD84B5816084BDC9
:1007D00085B5826085BD85B5816085BDEEE6F0E0BA
:1007E000808181608083E1E8F0E0808182608083A5
:1007F000808181608083E0E8F0E080818160808397
:10080000E1EBF0E0808184608083E0EBF0E08081C8
:1008100081608083EAE7F0E080818460808380816A
:100820008260808380818160808380818068808312
:100830001092C1000895282F30E0C90186569F4FBD
:10084000FC0194912A573F4FF9018491882391F03C
:10085000E82FF0E0EE0FFF1FE859FF4FA591B4918C
:10086000662329F48C91909589238C9308958C911B
:10087000892B8C930895482F50E0CA0182559F4FD1
:10088000FC012491CA0186569F4FFC0194914A575E
:100890005F4FFA0134913323D1F1222331F1233018
:1008A00021F4809180008F7705C0243031F480914D
:1008B00080008F7D8093800018C0213019F484B5AA
:1008C0008F7704C0223021F484B58F7D84BD0DC0A4
:1008D000263021F48091B0008F7705C0273029F4AD
:1008E0008091B0008F7D8093B000E32FF0E0EE0F99
:1008F000FF1FEE58FF4FA591B491662329F48C9108
:10090000909589238C9308958C91892B8C930895CD
:100910001F920F920FB60F9211242F933F934F9374
:100920005F936F937F938F939F93AF93BF93EF9357
:10093000FF934091C600E0913103F0913203CF0163
:10094000019660E870E00E9462079C018091330389
:10095000909134032817390739F0EF54FD4F408345
:100960003093320320933103FF91EF91BF91AF9108
:100970009F918F917F916F915F914F913F912F91B7
:100980000F900FBE0F901F9018955F926F927F92FD
:100990008F929F92AF92BF92CF92DF92EF92FF928F
:1009A0000F931F93CF93DF93EC013A014B01413238
:1009B00081EA580787E0680780E078070CF07FC07D
:1009C00060E472E48FE090E0A40193010E94970735
:1009D0002150304040405040CA01B90122E030E08F
:1009E00040E050E00E94970759016A01A601950175
:1009F000209530954095509594E0220F331F441F69
:100A0000551F9A95D1F760E072E18AE790E00E9465
:100A10009707CA01B9012FEF30E040E050E00E9493
:100A20004307A40193010E949707C90181509F4F7A
:100A3000181619061CF4522E5A9403C055245394C8
:100A4000521A60E874E88EE190E0A40193010E94DC
:100A500097072150304040405040CA01B90122E080
:100A600030E040E050E00E94970720953095409597
:100A7000509583E0220F331F441F551F8A95D1F7ED
:100A800060E072E18AE790E00E949707CA01B9012D
:100A90002FEF30E040E050E00E944307A4019301B3
:100AA0000E949707C90181509F4F181619061CF420
:100AB000822F815002C081E0821B851500F5E885F8
:100AC000F98581E090E00A8802C0880F991F0A9496
:100AD000E2F7808360E874E88EE190E0A40193017E
:100AE0000E9497072150304040405040CA01B90150
:100AF00022E030E040E050E00E94970704C0E88523
:100B0000F98510829501EC81FD813083EE81FF81B2
:100B10002083EA85FB85208141E050E0CA010E84F4
:100B200002C0880F991F0A94E2F7282B2083EA85D8
:100B3000FB852081CA010F8402C0880F991F0A9487
:100B4000E2F7282B2083EA85FB858081088802C094
:100B5000440F551F0A94E2F7842B8083DF91CF91D5
:100B60001F910F91FF90EF90DF90CF90BF90AF90CB
:100B70009F908F907F906F905F900895FC01A0856B
:100B8000B18521898C9190E0022E02C095958795C0
:100B90000A94E2F780FFF6CF0484F585E02D6083A8
:100BA00008958FE391E0909336038093350381EBB2
:100BB00092E0909338038093370385EC90E0909314
:100BC0003A038093390384EC90E090933C03809344
:100BD0003B0380EC90E090933E0380933D0381ECD7
:100BE00090E09093400380933F0386EC90E09093D5
:100BF00042038093410384E08093430383E0809326
:100C0000440387E08093450385E08093460381E0B9
:100C10008093470308950F931F93CF93DF938C0125
:100C2000EB0109C02196D801ED91FC910190F08172
:100C3000E02DC801099568816623A1F7DF91CF9166
:100C40001F910F910895EF92FF920F931F93CF93EF
:100C5000DF938C017B01EA010CC0D7016D917D010E
:100C6000D801ED91FC910190F081E02DC80109952A
:100C70002197209791F7DF91CF911F910F91FF90CE
:100C8000EF900895DC01ED91FC910280F381E02D5D
:100C9000099508950F931F938C01DC01ED91FC9150
:100CA0000190F081E02D6DE00995D801ED91FC9166
:100CB0000190F081E02DC8016AE009951F910F9124
:100CC00008950F931F938C010E944206C8010E9451
:100CD0004A061F910F9108952F923F924F925F9273
:100CE0006F927F928F929F92AF92BF92CF92DF923C
:100CF000EF92FF920F931F93DF93CF93CDB7DEB7A1
:100D0000A0970FB6F894DEBF0FBECDBF1C016A01DD
:100D10007B01411551056105710549F4DC01ED9137
:100D2000FC910190F081E02D60E3099554C0882486
:100D300099245401422E55246624772401E010E0C2
:100D40000C0F1D1F080D191DC701B601A30192014B
:100D50000E947507F80160830894811C911CA11CF6
:100D6000B11CC701B601A30192010E947507C90118
:100D7000DA016C017D01C114D104E104F104F1F642
:100D800081E0E82EF12CEC0EFD1EE80CF91C3E0172
:100D90000894611C711CD501C4010197A109B10916
:100DA0006C01C818D90814C0F601EE0DFF1D608152
:100DB0006A3010F4605D01C0695CD101ED91FC9175
:100DC0000190F081E02DC10109950894E108F10836
:100DD0006E147F0449F7A0960FB6F894DEBF0FBEDD
:100DE000CDBFCF91DF911F910F91FF90EF90DF90DA
:100DF000CF90BF90AF909F908F907F906F905F90BB
:100E00004F903F902F900895EF92FF920F931F9372
:100E1000CF93DF93EC017A018B0177FF0FC0E8815C
:100E2000F9810190F081E02D6DE209951095009512
:100E3000F094E094E11CF11C011D111DCE01B801DC
:100E4000A7012AE00E946C06DF91CF911F910F91BC
:100E5000FF90EF900895AB01662757FD6095762FC0
:100E60000E94040708950F931F938C01AB0166271E
:100E700057FD6095762F0E940407C8010E944A061C
:100E80001F910F910895629FD001739FF001829F7F
:100E9000E00DF11D649FE00DF11D929FF00D839F09
:100EA000F00D749FF00D659FF00D9927729FB00DA6
:100EB000E11DF91F639FB00DE11DF91FBD01CF01B9
:100EC0001124089597FB092E07260AD077FD04D038
:100ED00049D006D000201AF4709561957F4F08958F
:100EE000F6F7909581959F4F0895A1E21A2EAA1BBF
:100EF000BB1BFD010DC0AA1FBB1FEE1FFF1FA217CA
:100F0000B307E407F50720F0A21BB30BE40BF50BC6
:100F1000661F771F881F991F1A9469F7609570954F
:100F2000809590959B01AC01BD01CF01089597FB81
:100F3000092E05260ED057FD04D0D7DF0AD0001C9D
:100F400038F450954095309521953F4F4F4F5F4F66
:100F50000895F6F790958095709561957F4F8F4F26
:100F60009F4F0895AA1BBB1B51E107C0AA1FBB1FBF
:100F7000A617B70710F0A61BB70B881F991F5A9525
:100F8000A9F780959095BC01CD010895EE0FFF1F44
:0C0F90000590F491E02D0994F894FFCF37
:100F9C0053756E20004D6F6E200054756520005700
:100FAC006564200054687520004672692000536106
:100FBC007420003A003030004D4F2070726573730E
:100FCC00656400040005000600070000000000BE78
:060FDC00050B06230600D0
:00000001FF
